:020000040800F2
:1000000010040020450100089D0300086703000854
:10001000990300088D010008310500080000000068
:10002000000000000000000000000000E1030008E4
:10003000E5010008000000009F030008CD0400084F
:100040005F0100085F0100085F0100085F01000810
:100050005F0100085F010008F10100085F0100086E
:100060005F0100085F0100085F0100085F010008F0
:100070005F0100085F0100085F0100085F010008E0
:100080005F0100085F0100085F0100085F010008D0
:100090005F0100085F0100085F0100085F010008C0
:1000A0005F0100085F0100085F0100085F010008B0
:1000B0005F0100085F0100085F0100085F010008A0
:1000C0005F0100085F0100085F0100085F01000890
:1000D0005F0100085F0100085F0100085F01000880
:1000E0005F0100085F0100085F0100085F01000870
:1000F0005F0100085F0100085F0100085F01000860
:100100005F0100085F0100085F0100085F0100084F
:100110005F0100085F0100085F0100085F0100083F
:100120005F0100085F0100085F0100085F0100082F
:10013000DFF80CD000F018F800480047B1050008BF
:10014000100400200648804706480047FEE7FEE707
:10015000FEE7FEE7FEE7FEE7FEE7FEE7FEE7FEE777
:10016000D104000831010008064C074D06E0E068A4
:1001700040F0010394E8070098471034AC42F6D3EE
:10018000FFF7DAFF100600082006000800BFFEE7B0
:1001900021B1026842F00102026004E002684FF6F9
:1001A000FE731A400260704710B50022026847F6DD
:1001B000F0739A430C6A8B6823430C6923434C69A0
:1001C00023438C692343CC6923434C6A23438C6AC1
:1001D00023431A430260CB6843600B6883604B681B
:1001E000C36010BD704700E0401E0028FCD170477E
:1001F00010B5012000F014F828B10548006880F01F
:10020000200003490860012000F004F810BD000040
:100210000C0C0140014908607047000014040140C3
:10022000014600200022074B1B6803EA0102054B30
:1002300014331B680B4013B10AB1012000E0002009
:1002400070470000000401402DE9F04102460025FE
:100250000026002000230024002791F803C00CF0A2
:100260000F0591F803C00CF0100CBCF1000F03D087
:1002700091F802C04CEA050591F800C0BCF1000FEE
:1002800031D0146800202BE04FF0010C0CFA00F381
:10029000B1F800C00CEA03069E4220D183004FF063
:1002A0000F0C0CFA03F7BC4305FA03FC4CEA0404F8
:1002B00091F803C0BCF1280F06D14FF0010C0CFAE5
:1002C00000FCC2F814C00AE091F803C0BCF1480F6A
:1002D00005D14FF0010C0CFA00FCC2F810C0401C14
:1002E0000828D1D31460B1F800C0BCF1FF0F34DD91
:1002F000546800202EE000F1080C4FF0010808FAC5
:100300000CF3B1F800C00CEA03069E4221D1830031
:100310004FF00F0C0CFA03F7BC4305FA03FC4CEA50
:10032000040491F803C0BCF1280F05D100F1080CBA
:1003300008FA0CF8C2F8148091F803C0BCF1480F19
:1003400007D100F1080C4FF0010808FA0CF8C2F8C8
:100350001080401C0828CED35460BDE8F081416174
:1003600070470161704700BFFEE7000008B501213A
:10037000082000F025F82020ADF8000010208DF8AE
:10038000030003208DF8020069460248FFF75CFF76
:1003900008BD0000000C014000BFFEE77047704739
:1003A00029B1064A52690243044B5A6104E0034AE8
:1003B00052698243014B5A617047000000100240AD
:1003C00029B1064A92690243044B9A6104E0034A48
:1003D00092698243014B9A6170470000001002400D
:1003E000704710B500F002F810BD00000CB50020F9
:1003F000019000903348006840F480303149086033
:1004000000BF3048006800F4003000900198401CA4
:100410000190009818B90198B0F5A06FF1D1294862
:10042000006800F4003010B10120009001E00020CD
:1004300000900098012843D12348006840F0100044
:10044000214908600846006820F00300086008465B
:10045000006840F0020008601A4840681949486086
:100460000846406848600846406840F4806048603C
:100470000846406820F47C1048600846406840F414
:10048000E81048600846006840F08070086000BFCF
:100490000C48006800F000700028F9D00948406856
:1004A00020F00300074948600846406840F0020019
:1004B000486000BF0348406800F00C000828F9D1EC
:1004C0000CBD0000001002400020024070470000F8
:1004D00010B51348006840F0010011490860084653
:1004E0004068104908400E494860084600680E49B7
:1004F00008400B4908600846006820F48020086026
:100500000846406820F4FE0048604FF41F008860F1
:10051000FFF767FF4FF000600449086010BD00005E
:10052000001002400000FFF8FFFFF6FE08ED00E0BB
:1005300000BFFEE702E008C8121F08C1002AFAD176
:1005400070477047002001E001C1121F002AFBD153
:100550007047000000B58BB001210846FFF720FF6F
:100560001048009010480190002002900420039051
:1005700040200490C0000690802005900001079064
:10058000002008904FF40050099040000A906946FE
:100590000648FFF709FE01210448FFF7F9FD0BB0FB
:1005A00000BD000000060008000000201C00024002
:1005B00010B5FFF7DBFEFFF7CDFF0D48FFF713FE89
:1005C0000EE00C4880680C498968884204D12021DB
:1005D0000A48FFF7C6FE03E020210848FFF7BFFEE8
:1005E00004484068044949688842EAD0002010BDA8
:1005F000FFFF0F000000002000060008000C014073
:1006000004030201080706050C0B0A09100F0E0D62
:100610002006000800000020100400004405000827
:0400000508000131BD
:00000001FF
